:100000000C9454000C9471000C9471000C947100C9
:100010000C9471000C9471000C9471000C9471009C
:100020000C9471000C9471000C9471000C94FB0101
:100030000C9471000C9471000C9471000C9471007C
:100040000C9471000C9471000C9471000C9471006C
:100050000C9471000C9471000C9471000C9471005C
:100060000C9471000C947100001F000000001F0030
:10007000001F101010101F00001F181818181F0064
:10008000001F1C1C1C1C1F00001F1E1E1E1E1F000C
:10009000001F1F1F1F1F1F0003070F1F0F07030055
:1000A000181C1E1F1E1C180011241FBECFEFD8E005
:1000B000DEBFCDBF11E0A0E0B1E0EAEFF5E002C0A5
:1000C00005900D92AE30B107D9F721E0AEE0B1E076
:1000D00001C01D92A431B207E1F70E94B1010C9456
:1000E000FB020C94000010927C0087E880937A0059
:1000F00081E080937E000895EAE7F0E080818064EB
:10010000808380917A0084FFFCCFEAE7F0E0808171
:10011000806180838091780090917900089584B106
:10012000826084B9089585B18D7F85B9089585B1C0
:10013000826085B90895982F907F9BB99BB191609B
:100140009BB99BB194609BB925ED2A95F1F700000E
:100150009BB19B7F9BB99BB19E7F9BB995ED9A9577
:10016000F1F7000020E1829FC00111248BB98BB10F
:1001700081608BB98BB184608BB985ED8A95F1F77D
:1001800000008BB18B7F8BB98BB18E7F8BB995EDD6
:100190009A95F1F700000895982F907F9BB99BB135
:1001A00094609BB9EFE9FFE03197F1F700C00000E0
:1001B0009BB19B7F9BB9EFE9FFE03197F1F700C05E
:1001C0000000F0E18F9FC00111248BB98BB18460D6
:1001D0008BB98FE99FE00197F1F700C000008BB168
:1001E0008B7F8BB9EFE9FFE03197F1F700C000009A
:1001F000089581E00E94CC0008950F931F93CF9340
:10020000DF93009769F0D62F8C01C0E007C0F8019A
:10021000EC0FF11D80810E949B00CF5FCD17B8F3DA
:10022000DF91CF911F910F910895623031F06330CB
:1002300031F0613029F4805C03C08C5E01C08C5ABF
:1002400080680E94CC000895EF92FF920F931F9355
:10025000CF93DF937C01862F90E0880F991F880F42
:10026000991F880F991F8064C0E0D0E00DC0F7018E
:10027000EC0FFD1F149101E0080F0E94CC00812FAC
:100280000E949B002196802FC830D10580F3DF911A
:10029000CF911F910F91FF90EF900895CF93DF932F
:1002A0008FE59AEE0197F1F700C000001BB81BB86C
:1002B0008AB1806F8AB98AB187608AB990E39BB9A5
:1002C0008BB184608BB9EFE9FFE03197F1F700C0A3
:1002D00000008BB18B7F8BB9EFE9FFE03197F1F72D
:1002E00000C000009BB98BB184608BB98FE99FE09F
:1002F0000197F1F700C000008BB18B7F8BB9EFE95C
:10030000FFE03197F1F700C0000080E28BB98BB1BC
:1003100084608BB98FE99FE00197F1F700C000007E
:100320008BB18B7F8BB9EFE9FFE03197F1F700C01C
:10033000000088E20E94CC008CE00E94CC0060E0CB
:10034000C0E00AC0D1E0D60F8C2F90E088599F4FB3
:100350000E942401C85F6D2FC034A0F3DF91CF91BC
:1003600008950E944E010E94E1010E94E0020E9455
:100370008F000E94C1010E94A30278940E94F201A2
:10038000FDCF0E94730008950E947C009C01A8E8A4
:10039000B3E10E94EC029B01AC01012E1AE05695DC
:1003A0004795379527951A95D1F7102DADECBCECF4
:1003B0000E94EC02969587959695879596958795D8
:1003C000089589E698E190938900809388001092BF
:1003D00080008CE080938100EFE6F0E08081826015
:1003E0008083089580910F01813021F40E94AA0238
:1003F00010920F0108951F920F920FB60F921124C1
:100400008F9380910E018F5F80930E01853029F4C8
:1004100081E080930F0110920E018F910F900FBE1B
:100420000F901F901895CF93DF9324E6289FA0018B
:10043000299F500D11249A013695279536952795B9
:1004400036952795A5ECB0E20E94EC02FC01F295EE
:10045000E295EF70EF27FF70EF279F01ADECBCEC4A
:100460000E94EC0296958795969587959695879527
:100470009C01220F331F880F991F880F991F880F27
:10048000991F820F931F9F01281B390BC901E0E0C0
:10049000F1E0805D86839A013695279536952795FC
:1004A000ABE7B4E10E94EC02EC01D695C7959E0142
:1004B000ADECBCEC0E94EC029695879596958795DD
:1004C000969587959C01220F331F880F991F880FDF
:1004D000991F880F991F820F931F9E01281B390BAC
:1004E000C901805D87839A010E94EC02AC01569598
:1004F000479556954795569547959A010E94EC0267
:100500009695879596958795969587959C01220F48
:10051000331F880F991F880F991F880F991F820F0B
:10052000931F9A01281B390BC901805D818760E008
:1005300080E00E9415016EE080E091E00E94FD00E5
:10054000DF91CF91089510921101109210010E9435
:10055000F90008950E94C401909313018093120141
:100560008931910550F080911101811122C00E94C2
:10057000E80281E0809311011CC0419750F4809102
:100580001001811116C00E94970081E08093100134
:1005900010C080911001882321F00E9493001092D6
:1005A000100180911101882321F00E94E402109231
:1005B000110180911201909113010E94130208957C
:1005C00084B1816084B9089585B18E7F85B908951D
:1005D00085B1816085B90895A29FB001B39FC00124
:1005E000A39F700D811D1124911DB29F700D811D5F
:0A05F0001124911D0895F894FFCF27
:0E05FA0054454D503A2030302E30205B435D8A
:00000001FF
