:100000000C9454000C9471000C9471000C947100C9
:100010000C9471000C9471000C9471000C9471009C
:100020000C9471000C9471000C9471000C940002FB
:100030000C9471000C9471000C9471000C9471007C
:100040000C9471000C9471000C9471000C9471006C
:100050000C9471000C9471000C9471000C9471005C
:100060000C9471000C947100001F000000001F0030
:10007000001F101010101F00001F181818181F0064
:10008000001F1C1C1C1C1F00001F1E1E1E1E1F000C
:10009000001F1F1F1F1F1F0003070F1F0F07030055
:1000A000181C1E1F1E1C180011241FBECFEFD8E005
:1000B000DEBFCDBF11E0A0E0B1E0EAE9F5E002C0AB
:1000C00005900D92AE30B107D9F721E0AEE0B1E076
:1000D00001C01D92A431B207E1F70E94AC010C945B
:1000E000CB020C94000010927C0087E880937A0089
:1000F00081E080937E000895EAE7F0E080818064EB
:10010000808380818081806180838091780090915C
:100110007900089584B1826084B9089585B18D7F96
:1001200085B9089585B1826085B90895982F907F2B
:100130009BB99BB191609BB99BB194609BB925ED34
:100140002A95F1F700009BB19B7F9BB99BB19E7FE5
:100150009BB995ED9A95F1F7000020E1829FC001CF
:1001600011248BB98BB181608BB98BB184608BB951
:1001700085ED8A95F1F700008BB18B7F8BB98BB140
:100180008E7F8BB995ED9A95F1F700000895982F21
:10019000907F9BB99BB194609BB9EFE9FFE03197E9
:1001A000F1F700C000009BB19B7F9BB9EFE9FFE036
:1001B0003197F1F700C00000F0E18F9FC0011124DA
:1001C0008BB98BB184608BB98FE99FE00197F1F710
:1001D00000C000008BB18B7F8BB9EFE9FFE0319756
:1001E000F1F700C00000089581E00E94C700089563
:1001F0000F931F93CF93DF93009769F0D62F8C0155
:10020000C0E007C0F801EC0FF11D80810E9496004C
:10021000CF5FCD17B8F3DF91CF911F910F91089564
:10022000623031F0633031F0613029F4805C03C01A
:100230008C5E01C08C5A80680E94C7000895EF92BE
:10024000FF920F931F93CF93DF937C01862F90E053
:10025000880F991F880F991F880F991F8064C0E02D
:10026000D0E00DC0F701EC0FFD1F149101E0080F65
:100270000E94C700812F0E9496002196802FC830CF
:10028000D10580F3DF91CF911F910F91FF90EF90F7
:100290000895CF93DF938FE59AEE0197F1F700C0B1
:1002A00000001BB81BB88AB1806F8AB98AB1876019
:1002B0008AB990E39BB98BB184608BB9EFE9FFE019
:1002C0003197F1F700C000008BB18B7F8BB9EFE95C
:1002D000FFE03197F1F700C000009BB98BB184605B
:1002E0008BB98FE99FE00197F1F700C000008BB157
:1002F0008B7F8BB9EFE9FFE03197F1F700C0000089
:1003000080E28BB98BB184608BB98FE99FE0019754
:10031000F1F700C000008BB18B7F8BB9EFE9FFE0F4
:100320003197F1F700C0000088E20E94C7008CE01E
:100330000E94C70060E0C0E00AC0D1E0D60F8C2F59
:1003400090E088599F4F0E941F01C85F6D2FC034F5
:10035000A0F3DF91CF9108950E9449010E94E60128
:100360000E94B0020E948A000E94BC010E941802F2
:1003700078940E94F701FDCF88E190E090931301FB
:10038000809312010E94730008950E947C009C01DA
:10039000A8E8B3E10E94BC029B01AC01012E1AE067
:1003A00056954795379527951A95D1F7102DADECB1
:1003B000BCEC0E94BC02969587959695879596957C
:1003C00087959093130180931201089589E698E12F
:1003D0009093890080938800109280008CE0809335
:1003E0008100EFE6F0E08081826080830895809153
:1003F0000F01813021F40E94910210920F010895A3
:100400001F920F920FB60F9211248F9380910E01BD
:100410008F5F80930E01853029F481E080930F0176
:1004200010920E018F910F900FBE0F901F90189594
:100430000E94F4000895CF93DF93AC01440F551F41
:10044000880F991F880F991F880F991F480F591FF0
:100450009A013695279536952795ABE7B4E10E942A
:10046000BC02FC01F695E7959F01ADECBCEC0E9447
:10047000BC029695879596958795969587959C014C
:10048000220F331F880F991F880F991F880F991FFC
:10049000820F931F9F01281B390BC901E0E0F1E097
:1004A000805D86839A010E94BC02EC01D695C795B7
:1004B000D695C795D695C7959E010E94BC02969584
:1004C000879596958795969587959C01220F331F62
:1004D000880F991F880F991F880F991F820F931FEC
:1004E0009E01281B390BC901805D8783CE01880FCF
:1004F000991FCC0FDD1FCC0FDD1FCC0FDD1FC80FE8
:10050000D91F4C1B5D0B405D418760E080E00E947D
:1005100010016EE080E091E00E94F800DF91CF9141
:1005200008950E94C501909311018093100149978D
:1005300018F00E94B80202C00E94B402809110011B
:1005400090911101419718F40E94920002C00E94FC
:100550008E0080911001909111010E941B0208955C
:1005600084B1816084B9089585B18E7F85B908957D
:1005700085B1816085B90895A29FB001B39FC00184
:10058000A39F700D811D1124911DB29F700D811DBF
:0A0590001124911D0895F894FFCF87
:0E059A0054454D503A2030302E30205B435DEA
:00000001FF
