:100000000C9454000C9471000C9471000C947100C9
:100010000C9471000C9471000C9471000C9471009C
:100020000C9471000C9471000C9471000C945502A6
:100030000C9471000C9471000C9471000C9471007C
:100040000C9471000C9471000C9471000C9471006C
:100050000C9471000C9471000C9471000C9471005C
:100060000C9471000C947100001F000000001F0030
:10007000001F101010101F00001F181818181F0064
:10008000001F1C1C1C1C1F00001F1E1E1E1E1F000C
:10009000001F1F1F1F1F1F0003070F1F0F07030055
:1000A000181C1E1F1E1C180011241FBECFEFD8E005
:1000B000DEBFCDBF11E0A0E0B1E0EEE2FBE002C0A8
:1000C00005900D92AE30B107D9F721E0AEE0B1E076
:1000D00001C01D92A631B207E1F70E94B1010C9454
:1000E00095050C94000010927C0087E880937A00BC
:1000F00081E080937E000895EAE7F0E080818064EB
:10010000808380917A0084FFFCCFEAE7F0E0808171
:10011000806180838091780090917900089584B106
:10012000826084B9089585B18D7F85B9089585B1C0
:10013000826085B90895982F907F9BB99BB191609B
:100140009BB99BB194609BB925ED2A95F1F700000E
:100150009BB19B7F9BB99BB19E7F9BB995ED9A9577
:10016000F1F7000020E1829FC00111248BB98BB10F
:1001700081608BB98BB184608BB985ED8A95F1F77D
:1001800000008BB18B7F8BB98BB18E7F8BB995EDD6
:100190009A95F1F700000895982F907F9BB99BB135
:1001A00094609BB9EFE9FFE03197F1F700C00000E0
:1001B0009BB19B7F9BB9EFE9FFE03197F1F700C05E
:1001C0000000F0E18F9FC00111248BB98BB18460D6
:1001D0008BB98FE99FE00197F1F700C000008BB168
:1001E0008B7F8BB9EFE9FFE03197F1F700C000009A
:1001F000089581E00E94CC0008950F931F93CF9340
:10020000DF93009769F0D62F8C01C0E007C0F8019A
:10021000EC0FF11D80810E949B00CF5FCD17B8F3DA
:10022000DF91CF911F910F910895623031F06330CB
:1002300031F0613029F4805C03C08C5E01C08C5ABF
:1002400080680E94CC000895EF92FF920F931F9355
:10025000CF93DF937C01862F90E0880F991F880F42
:10026000991F880F991F8064C0E0D0E00DC0F7018E
:10027000EC0FFD1F149101E0080F0E94CC00812FAC
:100280000E949B002196802FC830D10580F3DF911A
:10029000CF911F910F91FF90EF900895CF93DF932F
:1002A0008FE59AEE0197F1F700C000001BB81BB86C
:1002B0008AB1806F8AB98AB187608AB990E39BB9A5
:1002C0008BB184608BB9EFE9FFE03197F1F700C0A3
:1002D00000008BB18B7F8BB9EFE9FFE03197F1F72D
:1002E00000C000009BB98BB184608BB98FE99FE09F
:1002F0000197F1F700C000008BB18B7F8BB9EFE95C
:10030000FFE03197F1F700C0000080E28BB98BB1BC
:1003100084608BB98FE99FE00197F1F700C000007E
:100320008BB18B7F8BB9EFE9FFE03197F1F700C01C
:10033000000088E20E94CC008CE00E94CC0060E0CB
:10034000C0E00AC0D1E0D60F8C2F90E088599F4FB3
:100350000E942401C85F6D2FC034A0F3DF91CF91BC
:1003600008950E944E010E943B020E9443030E9496
:100370008F000E94C1010E94E70278940E944C0203
:10038000FDCF0E94730008954F925F926F927F920B
:100390008F929F92AF92BF92CF92DF92EF92FF9295
:1003A0000E947C00BC0180E090E00E94620420E09A
:1003B00030E44CE955E40E94190520E030E040E8C3
:1003C0005AE30E94190520E030E040E251E40E9427
:1003D000C1032B013C010E9433044B015C010E94CC
:1003E00062046B017C019B01AC01C301B2010E945C
:1003F0004F032B013C0123EC35EF48EA5EE30E94FA
:1004000014051816ACF423EC35EF48E25FE3C301A2
:10041000B2010E94BC0388235CF420E030E040E09D
:100420005FE3C701B6010E9450036B017C0114C059
:1004300023EC35EF48E25FE3C301B2010E941405EB
:10044000181654F4C501B4016F5F7F4F8F4F9F4F53
:100450000E9462046B017C01C701B601FF90EF901E
:10046000DF90CF90BF90AF909F908F907F906F90D4
:100470005F904F90089589E698E19093890080936A
:100480008800109280008CE080938100EFE6F0E01D
:10049000808182608083089580910F01813021F4F2
:1004A0000E94EE0210920F0108951F920F920FB654
:1004B0000F9211248F9380910E018F5F80930E0114
:1004C000853029F481E080930F0110920E018F9105
:1004D0000F900FBE0F901F901895CF92DF92EF9262
:1004E000FF9220E030E040E251E40E9419050E94B2
:1004F00033046B017C019B01369527953695279532
:10050000ABE7B4E10E948605AC01569547959A0188
:10051000ADECBCEC0E9486059695879596958795DF
:10052000969587959C01220F331F880F991F880F7E
:10053000991F880F991F820F931F9A01281B390B4F
:10054000C901E0E0F1E0805D868396010E948605A6
:10055000AC015695479556954795569547959A01FE
:100560000E94860596958795969587959695879589
:100570009C01220F331F880F991F880F991F880F26
:10058000991F820F931F9A01281B390BC901805DA7
:100590008783CA01880F991F440F551F440F551FA9
:1005A000440F551F480F591FC601841B950B805DD2
:1005B000818760E080E00E9415016EE080E091E0BC
:1005C0000E94FD00FF90EF90DF90CF900895109271
:1005D0001101109210010E94F9000895CF92DF924C
:1005E000EF92FF920E94C4016B017C0160931201A3
:1005F00070931301809314019093150120E030E073
:1006000040EC51E40E941405181654F48091110135
:1006100081112AC00E944B0381E08093110124C004
:1006200020E030E048E851E4C701B6010E94BC0375
:10063000882354F480911001811116C00E94970004
:1006400081E08093100110C080911001882321F077
:100650000E9493001092100180911101882321F0D3
:100660000E944703109211016091120170911301D1
:1006700080911401909115010E946D02FF90EF90FE
:10068000DF90CF90089584B1816084B9089585B1D9
:100690008E7F85B9089585B1816085B908955058D8
:1006A000BB27AA270E9467030C94DA040E94CC049B
:1006B00038F00E94D30420F039F49F3F19F426F457
:1006C0000C94C9040EF4E095E7FB0C94C304E92FE5
:1006D0000E94EB0458F3BA17620773078407950763
:1006E00020F079F4A6F50C940D050EF4E0950B2E90
:1006F000BA2FA02D0B01B90190010C01CA01A00174
:100700001124FF27591B99F0593F50F4503E68F1CE
:100710001A16F040A22F232F342F4427585FF3CF0F
:10072000469537952795A795F0405395C9F77EF4E0
:100730001F16BA0B620B730B840BBAF09150A1F029
:10074000FF0FBB1F661F771F881FC2F70EC0BA0FAF
:10075000621F731F841F48F4879577956795B79537
:10076000F7959E3F08F0B0CF9395880F08F0992732
:10077000EE0F9795879508950E949F0408F481E0F5
:1007800008950E94D5030C94DA040E94D30458F013
:100790000E94CC0440F029F45F3F29F00C94C3047C
:1007A00051110C940E050C94C9040E94EB0468F3DB
:1007B0009923B1F3552391F3951B550BBB27AA271A
:1007C00062177307840738F09F5F5F4F220F331F54
:1007D000441FAA1FA9F335D00E2E3AF0E0E832D01C
:1007E00091505040E695001CCAF72BD0FE2F29D01F
:1007F000660F771F881FBB1F261737074807AB07F1
:10080000B0E809F0BB0B802DBF01FF2793585F4F65
:100810003AF09E3F510578F00C94C3040C940E05F9
:100820005F3FE4F3983ED4F3869577956795B79547
:10083000F7959F5FC9F7880F911D9695879597F952
:100840000895E1E0660F771F881FBB1F62177307CB
:100850008407BA0720F0621B730B840BBA0BEE1FE0
:1008600088F7E09508950E94F30488F09F5798F068
:10087000B92F9927B751B0F0E1F0660F771F881FA5
:10088000991F1AF0BA95C9F714C0B13091F00E94BF
:100890000D05B1E008950C940D05672F782F88277A
:1008A000B85F39F0B93FCCF3869577956795B395E6
:1008B000D9F73EF490958095709561957F4F8F4F55
:1008C0009F4F0895E89409C097FB3EF4909580955A
:1008D000709561957F4F8F4F9F4F9923A9F0F92F06
:1008E00096E9BB279395F695879577956795B79584
:1008F000F111F8CFFAF4BB0F11F460FF1BC06F5F6A
:100900007F4F8F4F9F4F16C0882311F096E911C07B
:10091000772321F09EE8872F762F05C0662371F09C
:1009200096E8862F70E060E02AF09A95660F771FB0
:10093000881FDAF7880F9695879597F90895990F8C
:100940000008550FAA0BE0E8FEEF16161706E80799
:10095000F907C0F012161306E407F50798F0621BBA
:10096000730B840B950B39F40A2661F0232B242B8F
:10097000252B21F408950A2609F4A140A6958FEFAE
:10098000811D811D089597F99F6780E870E060E000
:1009900008959FEF80EC089500240A941616170618
:1009A00018060906089500240A9412161306140660
:1009B00005060895092E0394000C11F4882352F0C3
:1009C000BB0F40F4BF2B11F460FF04C06F5F7F4F7B
:1009D0008F4F9F4F089557FD9058440F551F59F062
:1009E0005F3F71F04795880F97FB991F61F09F3F1C
:1009F00079F087950895121613061406551FF2CF45
:100A00004695F1DF08C0161617061806991FF1CF94
:100A100086957105610508940895E894BB276627BB
:100A20007727CB0197F908950E949F0408F48FEF70
:100A300008950E942C050C94DA040E94CC0438F02E
:100A40000E94D30420F0952311F00C94C3040C945D
:100A5000C90411240C940E050E94EB0470F3959FB9
:100A6000C1F3950F50E0551F629FF001729FBB27A5
:100A7000F00DB11D639FAA27F00DB11DAA1F649F41
:100A80006627B00DA11D661F829F2227B00DA11DF4
:100A9000621F739FB00DA11D621F839FA00D611D7A
:100AA000221F749F3327A00D611D231F849F600D9B
:100AB000211D822F762F6A2F11249F5750409AF0C4
:100AC000F1F088234AF0EE0FFF1FBB1F661F771F50
:100AD000881F91505040A9F79E3F510580F00C941B
:100AE000C3040C940E055F3FE4F3983ED4F386955F
:100AF00077956795B795F795E7959F5FC1F7FE2BBB
:100B0000880F911D9695879597F90895A29FB0013A
:100B1000B39FC001A39F700D811D1124911DB29F31
:0E0B2000700D811D1124911D0895F894FFCFD2
:0E0B2E0054454D503A2030302E30205B435D50
:00000001FF
